{
  "_format": "hh-sol-artifact-1",
  "contractName": "fungible_token",
  "sourceName": "contracts/fungible_token.sol",
  "abi": [
    {
      "inputs": [],
      "stateMutability": "nonpayable",
      "type": "constructor"
    },
    {
      "anonymous": false,
      "inputs": [
        {
          "indexed": true,
          "internalType": "address",
          "name": "owner",
          "type": "address"
        },
        {
          "indexed": true,
          "internalType": "address",
          "name": "spender",
          "type": "address"
        },
        {
          "indexed": false,
          "internalType": "uint256",
          "name": "value",
          "type": "uint256"
        }
      ],
      "name": "Approval",
      "type": "event"
    },
    {
      "anonymous": false,
      "inputs": [
        {
          "indexed": true,
          "internalType": "address",
          "name": "previousOwner",
          "type": "address"
        },
        {
          "indexed": true,
          "internalType": "address",
          "name": "newOwner",
          "type": "address"
        }
      ],
      "name": "OwnershipTransferred",
      "type": "event"
    },
    {
      "anonymous": false,
      "inputs": [
        {
          "indexed": true,
          "internalType": "address",
          "name": "from",
          "type": "address"
        },
        {
          "indexed": true,
          "internalType": "address",
          "name": "to",
          "type": "address"
        },
        {
          "indexed": false,
          "internalType": "uint256",
          "name": "value",
          "type": "uint256"
        }
      ],
      "name": "Transfer",
      "type": "event"
    },
    {
      "inputs": [
        {
          "internalType": "address",
          "name": "owner",
          "type": "address"
        },
        {
          "internalType": "address",
          "name": "spender",
          "type": "address"
        }
      ],
      "name": "allowance",
      "outputs": [
        {
          "internalType": "uint256",
          "name": "",
          "type": "uint256"
        }
      ],
      "stateMutability": "view",
      "type": "function"
    },
    {
      "inputs": [
        {
          "internalType": "address",
          "name": "spender",
          "type": "address"
        },
        {
          "internalType": "uint256",
          "name": "amount",
          "type": "uint256"
        }
      ],
      "name": "approve",
      "outputs": [
        {
          "internalType": "bool",
          "name": "",
          "type": "bool"
        }
      ],
      "stateMutability": "nonpayable",
      "type": "function"
    },
    {
      "inputs": [
        {
          "internalType": "address",
          "name": "account",
          "type": "address"
        }
      ],
      "name": "balanceOf",
      "outputs": [
        {
          "internalType": "uint256",
          "name": "",
          "type": "uint256"
        }
      ],
      "stateMutability": "view",
      "type": "function"
    },
    {
      "inputs": [
        {
          "internalType": "uint256",
          "name": "amount",
          "type": "uint256"
        }
      ],
      "name": "burn",
      "outputs": [],
      "stateMutability": "nonpayable",
      "type": "function"
    },
    {
      "inputs": [],
      "name": "decimals",
      "outputs": [
        {
          "internalType": "uint8",
          "name": "",
          "type": "uint8"
        }
      ],
      "stateMutability": "view",
      "type": "function"
    },
    {
      "inputs": [
        {
          "internalType": "address",
          "name": "spender",
          "type": "address"
        },
        {
          "internalType": "uint256",
          "name": "subtractedValue",
          "type": "uint256"
        }
      ],
      "name": "decreaseAllowance",
      "outputs": [
        {
          "internalType": "bool",
          "name": "",
          "type": "bool"
        }
      ],
      "stateMutability": "nonpayable",
      "type": "function"
    },
    {
      "inputs": [
        {
          "internalType": "address",
          "name": "to",
          "type": "address"
        },
        {
          "internalType": "uint256",
          "name": "amount",
          "type": "uint256"
        }
      ],
      "name": "earnTokens",
      "outputs": [],
      "stateMutability": "nonpayable",
      "type": "function"
    },
    {
      "inputs": [
        {
          "internalType": "address",
          "name": "spender",
          "type": "address"
        },
        {
          "internalType": "uint256",
          "name": "addedValue",
          "type": "uint256"
        }
      ],
      "name": "increaseAllowance",
      "outputs": [
        {
          "internalType": "bool",
          "name": "",
          "type": "bool"
        }
      ],
      "stateMutability": "nonpayable",
      "type": "function"
    },
    {
      "inputs": [
        {
          "internalType": "address",
          "name": "to",
          "type": "address"
        },
        {
          "internalType": "uint256",
          "name": "amount",
          "type": "uint256"
        }
      ],
      "name": "mint",
      "outputs": [],
      "stateMutability": "nonpayable",
      "type": "function"
    },
    {
      "inputs": [],
      "name": "name",
      "outputs": [
        {
          "internalType": "string",
          "name": "",
          "type": "string"
        }
      ],
      "stateMutability": "view",
      "type": "function"
    },
    {
      "inputs": [],
      "name": "owner",
      "outputs": [
        {
          "internalType": "address",
          "name": "",
          "type": "address"
        }
      ],
      "stateMutability": "view",
      "type": "function"
    },
    {
      "inputs": [],
      "name": "renounceOwnership",
      "outputs": [],
      "stateMutability": "nonpayable",
      "type": "function"
    },
    {
      "inputs": [],
      "name": "symbol",
      "outputs": [
        {
          "internalType": "string",
          "name": "",
          "type": "string"
        }
      ],
      "stateMutability": "view",
      "type": "function"
    },
    {
      "inputs": [],
      "name": "totalSupply",
      "outputs": [
        {
          "internalType": "uint256",
          "name": "",
          "type": "uint256"
        }
      ],
      "stateMutability": "view",
      "type": "function"
    },
    {
      "inputs": [
        {
          "internalType": "address",
          "name": "recipient",
          "type": "address"
        },
        {
          "internalType": "uint256",
          "name": "amount",
          "type": "uint256"
        }
      ],
      "name": "transfer",
      "outputs": [
        {
          "internalType": "bool",
          "name": "",
          "type": "bool"
        }
      ],
      "stateMutability": "nonpayable",
      "type": "function"
    },
    {
      "inputs": [
        {
          "internalType": "address",
          "name": "sender",
          "type": "address"
        },
        {
          "internalType": "address",
          "name": "recipient",
          "type": "address"
        },
        {
          "internalType": "uint256",
          "name": "amount",
          "type": "uint256"
        }
      ],
      "name": "transferFrom",
      "outputs": [
        {
          "internalType": "bool",
          "name": "",
          "type": "bool"
        }
      ],
      "stateMutability": "nonpayable",
      "type": "function"
    },
    {
      "inputs": [
        {
          "internalType": "address",
          "name": "newOwner",
          "type": "address"
        }
      ],
      "name": "transferOwnership",
      "outputs": [],
      "stateMutability": "nonpayable",
      "type": "function"
    }
  ],
  "bytecode": "0x60806040523480156200001157600080fd5b506040805180820182526008808252674d6574614d61726b60c01b6020808401828152855180870190965292855284015281519192916200005591600391620001e1565b5080516200006b906004906020840190620001e1565b5050506200008862000082620000a460201b60201c565b620000a8565b6200009e3369021e19e0c9bab2400000620000fa565b62000329565b3390565b600580546001600160a01b038381166001600160a01b0319831681179093556040519116919082907f8be0079c531659141344cd1fd0a4f28419497f9722a3daafe3b4186f6b6457e090600090a35050565b6001600160a01b0382166200012c5760405162461bcd60e51b8152600401620001239062000287565b60405180910390fd5b6200013a60008383620001dc565b80600260008282546200014e9190620002c7565b90915550506001600160a01b038216600090815260208190526040812080548392906200017d908490620002c7565b90915550506040516001600160a01b038316906000907fddf252ad1be2c89b69c2b068fc378daa952ba7f163c4a11628f55a4df523b3ef90620001c2908590620002be565b60405180910390a3620001d860008383620001dc565b5050565b505050565b828054620001ef90620002ec565b90600052602060002090601f0160209004810192826200021357600085556200025e565b82601f106200022e57805160ff19168380011785556200025e565b828001600101855582156200025e579182015b828111156200025e57825182559160200191906001019062000241565b506200026c92915062000270565b5090565b5b808211156200026c576000815560010162000271565b6020808252601f908201527f45524332303a206d696e7420746f20746865207a65726f206164647265737300604082015260600190565b90815260200190565b60008219821115620002e757634e487b7160e01b81526011600452602481fd5b500190565b6002810460018216806200030157607f821691505b602082108114156200032357634e487b7160e01b600052602260045260246000fd5b50919050565b610f7f80620003396000396000f3fe608060405234801561001057600080fd5b506004361061010b5760003560e01c8063562cb2c2116100a257806395d89b411161007157806395d89b4114610209578063a457c2d714610211578063a9059cbb14610224578063dd62ed3e14610237578063f2fde38b1461024a5761010b565b8063562cb2c2146101c657806370a08231146101d9578063715018a6146101ec5780638da5cb5b146101f45761010b565b8063313ce567116100de578063313ce56714610176578063395093511461018b57806340c10f191461019e57806342966c68146101b35761010b565b806306fdde0314610110578063095ea7b31461012e57806318160ddd1461014e57806323b872dd14610163575b600080fd5b61011861025d565b6040516101259190610b49565b60405180910390f35b61014161013c366004610ae9565b6102ef565b6040516101259190610b3e565b61015661030c565b6040516101259190610eb2565b610141610171366004610aae565b610312565b61017e6103ab565b6040516101259190610ebb565b610141610199366004610ae9565b6103b0565b6101b16101ac366004610ae9565b610404565b005b6101b16101c1366004610b12565b610451565b6101b16101d4366004610ae9565b61045e565b6101566101e7366004610a5b565b6104a8565b6101b16104c7565b6101fc610512565b6040516101259190610b2a565b610118610521565b61014161021f366004610ae9565b610530565b610141610232366004610ae9565b6105a9565b610156610245366004610a7c565b6105bd565b6101b1610258366004610a5b565b6105e8565b60606003805461026c90610ef8565b80601f016020809104026020016040519081016040528092919081815260200182805461029890610ef8565b80156102e55780601f106102ba576101008083540402835291602001916102e5565b820191906000526020600020905b8154815290600101906020018083116102c857829003601f168201915b5050505050905090565b60006103036102fc610656565b848461065a565b50600192915050565b60025490565b600061031f84848461070e565b6001600160a01b038416600090815260016020526040812081610340610656565b6001600160a01b03166001600160a01b031681526020019081526020016000205490508281101561038c5760405162461bcd60e51b815260040161038390610cef565b60405180910390fd5b6103a085610398610656565b85840361065a565b506001949350505050565b601290565b60006103036103bd610656565b8484600160006103cb610656565b6001600160a01b03908116825260208083019390935260409182016000908120918b16815292529020546103ff9190610ec9565b61065a565b61040c610656565b6001600160a01b031661041d610512565b6001600160a01b0316146104435760405162461bcd60e51b815260040161038390610d37565b61044d8282610838565b5050565b61045b3382610900565b50565b610466610656565b6001600160a01b0316610477610512565b6001600160a01b03161461049d5760405162461bcd60e51b815260040161038390610d37565b61044d33838361070e565b6001600160a01b0381166000908152602081905260409020545b919050565b6104cf610656565b6001600160a01b03166104e0610512565b6001600160a01b0316146105065760405162461bcd60e51b815260040161038390610d37565b61051060006109f2565b565b6005546001600160a01b031690565b60606004805461026c90610ef8565b6000806001600061053f610656565b6001600160a01b039081168252602080830193909352604091820160009081209188168152925290205490508281101561058b5760405162461bcd60e51b815260040161038390610e36565b61059f610596610656565b8585840361065a565b5060019392505050565b60006103036105b6610656565b848461070e565b6001600160a01b03918216600090815260016020908152604080832093909416825291909152205490565b6105f0610656565b6001600160a01b0316610601610512565b6001600160a01b0316146106275760405162461bcd60e51b815260040161038390610d37565b6001600160a01b03811661064d5760405162461bcd60e51b815260040161038390610c21565b61045b816109f2565b3390565b6001600160a01b0383166106805760405162461bcd60e51b815260040161038390610df2565b6001600160a01b0382166106a65760405162461bcd60e51b815260040161038390610c67565b6001600160a01b0380841660008181526001602090815260408083209487168084529490915290819020849055517f8c5be1e5ebec7d5bd14f71427d1e84f3dd0314c0f7b2291e5b200ac8c7c3b92590610701908590610eb2565b60405180910390a3505050565b6001600160a01b0383166107345760405162461bcd60e51b815260040161038390610dad565b6001600160a01b03821661075a5760405162461bcd60e51b815260040161038390610b9c565b6107658383836109ed565b6001600160a01b0383166000908152602081905260409020548181101561079e5760405162461bcd60e51b815260040161038390610ca9565b6001600160a01b038085166000908152602081905260408082208585039055918516815290812080548492906107d5908490610ec9565b92505081905550826001600160a01b0316846001600160a01b03167fddf252ad1be2c89b69c2b068fc378daa952ba7f163c4a11628f55a4df523b3ef8460405161081f9190610eb2565b60405180910390a36108328484846109ed565b50505050565b6001600160a01b03821661085e5760405162461bcd60e51b815260040161038390610e7b565b61086a600083836109ed565b806002600082825461087c9190610ec9565b90915550506001600160a01b038216600090815260208190526040812080548392906108a9908490610ec9565b90915550506040516001600160a01b038316906000907fddf252ad1be2c89b69c2b068fc378daa952ba7f163c4a11628f55a4df523b3ef906108ec908590610eb2565b60405180910390a361044d600083836109ed565b6001600160a01b0382166109265760405162461bcd60e51b815260040161038390610d6c565b610932826000836109ed565b6001600160a01b0382166000908152602081905260409020548181101561096b5760405162461bcd60e51b815260040161038390610bdf565b6001600160a01b038316600090815260208190526040812083830390556002805484929061099a908490610ee1565b90915550506040516000906001600160a01b038516907fddf252ad1be2c89b69c2b068fc378daa952ba7f163c4a11628f55a4df523b3ef906109dd908690610eb2565b60405180910390a36109ed836000845b505050565b600580546001600160a01b038381166001600160a01b0319831681179093556040519116919082907f8be0079c531659141344cd1fd0a4f28419497f9722a3daafe3b4186f6b6457e090600090a35050565b80356001600160a01b03811681146104c257600080fd5b600060208284031215610a6c578081fd5b610a7582610a44565b9392505050565b60008060408385031215610a8e578081fd5b610a9783610a44565b9150610aa560208401610a44565b90509250929050565b600080600060608486031215610ac2578081fd5b610acb84610a44565b9250610ad960208501610a44565b9150604084013590509250925092565b60008060408385031215610afb578182fd5b610b0483610a44565b946020939093013593505050565b600060208284031215610b23578081fd5b5035919050565b6001600160a01b0391909116815260200190565b901515815260200190565b6000602080835283518082850152825b81811015610b7557858101830151858201604001528201610b59565b81811115610b865783604083870101525b50601f01601f1916929092016040019392505050565b60208082526023908201527f45524332303a207472616e7366657220746f20746865207a65726f206164647260408201526265737360e81b606082015260800190565b60208082526022908201527f45524332303a206275726e20616d6f756e7420657863656564732062616c616e604082015261636560f01b606082015260800190565b60208082526026908201527f4f776e61626c653a206e6577206f776e657220697320746865207a65726f206160408201526564647265737360d01b606082015260800190565b60208082526022908201527f45524332303a20617070726f766520746f20746865207a65726f206164647265604082015261737360f01b606082015260800190565b60208082526026908201527f45524332303a207472616e7366657220616d6f756e7420657863656564732062604082015265616c616e636560d01b606082015260800190565b60208082526028908201527f45524332303a207472616e7366657220616d6f756e74206578636565647320616040820152676c6c6f77616e636560c01b606082015260800190565b6020808252818101527f4f776e61626c653a2063616c6c6572206973206e6f7420746865206f776e6572604082015260600190565b60208082526021908201527f45524332303a206275726e2066726f6d20746865207a65726f206164647265736040820152607360f81b606082015260800190565b60208082526025908201527f45524332303a207472616e736665722066726f6d20746865207a65726f206164604082015264647265737360d81b606082015260800190565b60208082526024908201527f45524332303a20617070726f76652066726f6d20746865207a65726f206164646040820152637265737360e01b606082015260800190565b60208082526025908201527f45524332303a2064656372656173656420616c6c6f77616e63652062656c6f77604082015264207a65726f60d81b606082015260800190565b6020808252601f908201527f45524332303a206d696e7420746f20746865207a65726f206164647265737300604082015260600190565b90815260200190565b60ff91909116815260200190565b60008219821115610edc57610edc610f33565b500190565b600082821015610ef357610ef3610f33565b500390565b600281046001821680610f0c57607f821691505b60208210811415610f2d57634e487b7160e01b600052602260045260246000fd5b50919050565b634e487b7160e01b600052601160045260246000fdfea2646970667358221220a63619cc53f898752e97dfcf252a3f4fce4c181d5ef92f5810ff905b3b50794164736f6c63430008000033",
  "linkReferences": {},
  "deployedLinkReferences": {}
}