{
  "_format": "hh-sol-artifact-1",
  "contractName": "MetaMarket",
  "sourceName": "contracts/NFT_market.sol",
  "abi": [
    {
      "inputs": [],
      "stateMutability": "nonpayable",
      "type": "constructor"
    },
    {
      "anonymous": false,
      "inputs": [
        {
          "indexed": true,
          "internalType": "uint256",
          "name": "itemId",
          "type": "uint256"
        },
        {
          "indexed": true,
          "internalType": "address",
          "name": "nftContract",
          "type": "address"
        },
        {
          "indexed": true,
          "internalType": "uint256",
          "name": "tokenId",
          "type": "uint256"
        },
        {
          "indexed": false,
          "internalType": "address",
          "name": "seller",
          "type": "address"
        },
        {
          "indexed": false,
          "internalType": "address",
          "name": "owner",
          "type": "address"
        },
        {
          "indexed": false,
          "internalType": "address",
          "name": "creator",
          "type": "address"
        },
        {
          "indexed": false,
          "internalType": "uint256",
          "name": "price",
          "type": "uint256"
        },
        {
          "indexed": false,
          "internalType": "bool",
          "name": "sold",
          "type": "bool"
        }
      ],
      "name": "MarketItemCreated",
      "type": "event"
    },
    {
      "inputs": [
        {
          "internalType": "address",
          "name": "nftContract",
          "type": "address"
        },
        {
          "internalType": "uint256",
          "name": "tokenId",
          "type": "uint256"
        },
        {
          "internalType": "uint256",
          "name": "price",
          "type": "uint256"
        }
      ],
      "name": "createMarketItem",
      "outputs": [],
      "stateMutability": "payable",
      "type": "function"
    },
    {
      "inputs": [
        {
          "internalType": "address",
          "name": "nftContract",
          "type": "address"
        },
        {
          "internalType": "uint256",
          "name": "itemId",
          "type": "uint256"
        }
      ],
      "name": "createMarketSale",
      "outputs": [],
      "stateMutability": "payable",
      "type": "function"
    },
    {
      "inputs": [
        {
          "internalType": "uint256",
          "name": "id",
          "type": "uint256"
        }
      ],
      "name": "fetchItemById",
      "outputs": [
        {
          "components": [
            {
              "internalType": "uint256",
              "name": "itemId",
              "type": "uint256"
            },
            {
              "internalType": "address",
              "name": "nftContract",
              "type": "address"
            },
            {
              "internalType": "uint256",
              "name": "tokenId",
              "type": "uint256"
            },
            {
              "internalType": "address payable",
              "name": "seller",
              "type": "address"
            },
            {
              "internalType": "address payable",
              "name": "owner",
              "type": "address"
            },
            {
              "internalType": "uint256",
              "name": "price",
              "type": "uint256"
            },
            {
              "internalType": "bool",
              "name": "sold",
              "type": "bool"
            }
          ],
          "internalType": "struct MetaMarket.MarketItem",
          "name": "",
          "type": "tuple"
        }
      ],
      "stateMutability": "view",
      "type": "function"
    },
    {
      "inputs": [],
      "name": "fetchItemsCreated",
      "outputs": [
        {
          "components": [
            {
              "internalType": "uint256",
              "name": "itemId",
              "type": "uint256"
            },
            {
              "internalType": "address",
              "name": "nftContract",
              "type": "address"
            },
            {
              "internalType": "uint256",
              "name": "tokenId",
              "type": "uint256"
            },
            {
              "internalType": "address payable",
              "name": "seller",
              "type": "address"
            },
            {
              "internalType": "address payable",
              "name": "owner",
              "type": "address"
            },
            {
              "internalType": "uint256",
              "name": "price",
              "type": "uint256"
            },
            {
              "internalType": "bool",
              "name": "sold",
              "type": "bool"
            }
          ],
          "internalType": "struct MetaMarket.MarketItem[]",
          "name": "",
          "type": "tuple[]"
        }
      ],
      "stateMutability": "view",
      "type": "function"
    },
    {
      "inputs": [],
      "name": "fetchMarketItems",
      "outputs": [
        {
          "components": [
            {
              "internalType": "uint256",
              "name": "itemId",
              "type": "uint256"
            },
            {
              "internalType": "address",
              "name": "nftContract",
              "type": "address"
            },
            {
              "internalType": "uint256",
              "name": "tokenId",
              "type": "uint256"
            },
            {
              "internalType": "address payable",
              "name": "seller",
              "type": "address"
            },
            {
              "internalType": "address payable",
              "name": "owner",
              "type": "address"
            },
            {
              "internalType": "uint256",
              "name": "price",
              "type": "uint256"
            },
            {
              "internalType": "bool",
              "name": "sold",
              "type": "bool"
            }
          ],
          "internalType": "struct MetaMarket.MarketItem[]",
          "name": "",
          "type": "tuple[]"
        }
      ],
      "stateMutability": "view",
      "type": "function"
    },
    {
      "inputs": [],
      "name": "fetchMyNFTs",
      "outputs": [
        {
          "components": [
            {
              "internalType": "uint256",
              "name": "itemId",
              "type": "uint256"
            },
            {
              "internalType": "address",
              "name": "nftContract",
              "type": "address"
            },
            {
              "internalType": "uint256",
              "name": "tokenId",
              "type": "uint256"
            },
            {
              "internalType": "address payable",
              "name": "seller",
              "type": "address"
            },
            {
              "internalType": "address payable",
              "name": "owner",
              "type": "address"
            },
            {
              "internalType": "uint256",
              "name": "price",
              "type": "uint256"
            },
            {
              "internalType": "bool",
              "name": "sold",
              "type": "bool"
            }
          ],
          "internalType": "struct MetaMarket.MarketItem[]",
          "name": "",
          "type": "tuple[]"
        }
      ],
      "stateMutability": "view",
      "type": "function"
    },
    {
      "inputs": [],
      "name": "getListingPrice",
      "outputs": [
        {
          "internalType": "uint256",
          "name": "",
          "type": "uint256"
        }
      ],
      "stateMutability": "view",
      "type": "function"
    }
  ],
  "bytecode": "0x60806040526658d15e1762800060045534801561001b57600080fd5b506001600055600380546001600160a01b03191633179055610eff806100426000396000f3fe6080604052600436106100705760003560e01c806358eb2df51161004e57806358eb2df5146100d7578063c23b139e146100ec578063db16acff146100ff578063f064c32e1461012c57610070565b80630f08efe01461007557806312e85585146100a0578063202e3740146100c2575b600080fd5b34801561008157600080fd5b5061008a610141565b6040516100979190610d25565b60405180910390f35b3480156100ac57600080fd5b506100b56102f2565b6040516100979190610e60565b3480156100ce57600080fd5b5061008a6102f8565b6100ea6100e5366004610c2d565b6104df565b005b6100ea6100fa366004610c04565b6106b8565b34801561010b57600080fd5b5061011f61011a366004610c5f565b610844565b6040516100979190610e4c565b34801561013857600080fd5b5061008a6109bd565b6060600061014f6001610ba4565b9050600061015d6002610ba4565b6101676001610ba4565b6101719190610e81565b90506000808267ffffffffffffffff81111561019d57634e487b7160e01b600052604160045260246000fd5b6040519080825280602002602001820160405280156101d657816020015b6101c3610bb1565b8152602001906001900390816101bb5790505b50905060005b848110156102e95760006005816101f4846001610e69565b81526020810191909152604001600020600401546001600160a01b031614156102d7576000610224826001610e69565b600081815260056020818152604092839020835160e0810185528154815260018201546001600160a01b0390811693820193909352600282015494810194909452600381015482166060850152600481015490911660808401529081015460a0830152600681015460ff16151560c08301528551929350918590879081106102bc57634e487b7160e01b600052603260045260246000fd5b60209081029190910101526102d2600186610e69565b945050505b806102e181610e98565b9150506101dc565b50935050505090565b60045490565b606060006103066001610ba4565b905060008060005b83811015610369573360056000610326846001610e69565b81526020810191909152604001600020600401546001600160a01b0316141561035757610354600184610e69565b92505b8061036181610e98565b91505061030e565b5060008267ffffffffffffffff81111561039357634e487b7160e01b600052604160045260246000fd5b6040519080825280602002602001820160405280156103cc57816020015b6103b9610bb1565b8152602001906001900390816103b15790505b50905060005b848110156102e95733600560006103ea846001610e69565b81526020810191909152604001600020600401546001600160a01b031614156104cd57600061041a826001610e69565b600081815260056020818152604092839020835160e0810185528154815260018201546001600160a01b0390811693820193909352600282015494810194909452600381015482166060850152600481015490911660808401529081015460a0830152600681015460ff16151560c08301528551929350918590879081106104b257634e487b7160e01b600052603260045260246000fd5b60209081029190910101526104c8600186610e69565b945050505b806104d781610e98565b9150506103d2565b6002600054141561050b5760405162461bcd60e51b815260040161050290610e15565b60405180910390fd5b600260005560045434146105315760405162461bcd60e51b815260040161050290610dd1565b61053b6001610ba8565b60006105476001610ba4565b6040805160e0810182528281526001600160a01b0387811660208084018281528486018a8152336060870181815260006080890181815260a08a018e815260c08b018381528d8452600598899052928c90209a518b55955160018b0180546001600160a01b0319908116928c16929092179055945160028b0155915160038a0180548616918a1691909117905590516004808a018054909516919098161790925591519286019290925590516006909401805460ff19169415159490941790935592516323b872dd60e01b815293945091926323b872dd9261062e92913091899101610d01565b600060405180830381600087803b15801561064857600080fd5b505af115801561065c573d6000803e3d6000fd5b5050505082846001600160a01b0316827ff6a6e998cdb71a54614f951c87c07828d557c9d2d501f61d4183e344a06445c5333360008860006040516106a5959493929190610ccd565b60405180910390a4505060016000555050565b600260005414156106db5760405162461bcd60e51b815260040161050290610e15565b60026000818155828152600560208190526040909120908101549101543482146107175760405162461bcd60e51b815260040161050290610d73565b6000838152600560205260408082206003015490516001600160a01b03909116913480156108fc02929091818181858888f1935050505015801561075f573d6000803e3d6000fd5b506040516323b872dd60e01b81526001600160a01b038516906323b872dd9061079090309033908690600401610d01565b600060405180830381600087803b1580156107aa57600080fd5b505af11580156107be573d6000803e3d6000fd5b50505060008481526005602052604090206004810180546001600160a01b03191633179055600601805460ff19166001179055506107fc6002610ba8565b6003546004546040516001600160a01b039092169181156108fc0291906000818181858888f19350505050158015610838573d6000803e3d6000fd5b50506001600055505050565b61084c610bb1565b60006108586001610ba4565b60408051600080825260208201909252919250908161088d565b61087a610bb1565b8152602001906001900390816108725790505b50905060005b828110156109895784600560006108ab846001610e69565b81526020019081526020016000206002015414156109775760006108d0826001610e69565b6000818152600560208181526040808420815160e0810183528154815260018201546001600160a01b0390811694820194909452600282015492810192909252600381015483166060830152600481015490921660808201529181015460a0830152600681015460ff16151560c08301528651939450929091869161096557634e487b7160e01b600052603260045260246000fd5b60200260200101819052505050610989565b8061098181610e98565b915050610893565b50806000815181106109ab57634e487b7160e01b600052603260045260246000fd5b6020026020010151925050505b919050565b606060006109cb6001610ba4565b905060008060005b83811015610a2e5733600560006109eb846001610e69565b81526020810191909152604001600020600301546001600160a01b03161415610a1c57610a19600184610e69565b92505b80610a2681610e98565b9150506109d3565b5060008267ffffffffffffffff811115610a5857634e487b7160e01b600052604160045260246000fd5b604051908082528060200260200182016040528015610a9157816020015b610a7e610bb1565b815260200190600190039081610a765790505b50905060005b848110156102e9573360056000610aaf846001610e69565b81526020810191909152604001600020600301546001600160a01b03161415610b92576000610adf826001610e69565b600081815260056020818152604092839020835160e0810185528154815260018201546001600160a01b0390811693820193909352600282015494810194909452600381015482166060850152600481015490911660808401529081015460a0830152600681015460ff16151560c0830152855192935091859087908110610b7757634e487b7160e01b600052603260045260246000fd5b6020908102919091010152610b8d600186610e69565b945050505b80610b9c81610e98565b915050610a97565b5490565b80546001019055565b6040805160e081018252600080825260208201819052918101829052606081018290526080810182905260a0810182905260c081019190915290565b80356001600160a01b03811681146109b857600080fd5b60008060408385031215610c16578182fd5b610c1f83610bed565b946020939093013593505050565b600080600060608486031215610c41578081fd5b610c4a84610bed565b95602085013595506040909401359392505050565b600060208284031215610c70578081fd5b5035919050565b80518252602081015160018060a01b03808216602085015260408301516040850152806060840151166060850152806080840151166080850152505060a081015160a083015260c0810151151560c08301525050565b6001600160a01b03958616815293851660208501529190931660408301526060820192909252901515608082015260a00190565b6001600160a01b039384168152919092166020820152604081019190915260600190565b6020808252825182820181905260009190848201906040850190845b81811015610d6757610d54838551610c77565b9284019260e09290920191600101610d41565b50909695505050505050565b602080825260409082018190527f506c65617365207375626d6974207468652061736b696e672070726963652069908201527f6e206f7264657220746f20636f6d706c65746520746865207075726368617365606082015260800190565b60208082526024908201527f5072696365206d75737420626520657175616c20746f206c697374696e6720706040820152637269636560e01b606082015260800190565b6020808252601f908201527f5265656e7472616e637947756172643a207265656e7472616e742063616c6c00604082015260600190565b60e08101610e5a8284610c77565b92915050565b90815260200190565b60008219821115610e7c57610e7c610eb3565b500190565b600082821015610e9357610e93610eb3565b500390565b6000600019821415610eac57610eac610eb3565b5060010190565b634e487b7160e01b600052601160045260246000fdfea26469706673582212203ed35b45ad344d59c1f75c762cdc984515995096a2ed5ffed0d3320ef405a91364736f6c63430008000033",
  "linkReferences": {},
  "deployedLinkReferences": {}
}